:020000040800F2
:1000000028290020450100084103000839030008A1
:100010003D0300081D0200087906000800000000EA
:10002000000000000000000000000000390400088B
:100030002102000800000000430300082505000815
:100040005F0100085F0100085F0100085F01000810
:100050005F0100085F0100085F0100085F01000800
:100060005F0100085F0100085F0100085F010008F0
:100070005F0100085F0100085F0100085F010008E0
:100080005F0100085F0100085F0100085F010008D0
:100090005F0100085F0100085F0100085F010008C0
:1000A0005F0100085F0100085F0100085F010008B0
:1000B0005F0100085F0100085F0100085F010008A0
:1000C0005F0100085F0100085F0100085F01000890
:1000D0005F0100085F0100085F0100085F01000880
:1000E0005F0100085F0100085F0100085F01000870
:1000F0005F0100085F0100085F0100085F01000860
:100100005F0100085F0100085F0100085F0100084F
:100110005F0100085F0100085F0100085F0100083F
:100120005F0100085F0100085F0100085F0100082F
:10013000DFF80CD000F060F8004800471508000810
:10014000282900200648804706480047FEE7FEE7CA
:10015000FEE7FEE7FEE7FEE7FEE7FEE7FEE7FEE777
:10016000290500083101000896230022114600F0FD
:1001700014B80000002801DBC0F10040002901DBB9
:10018000C1F10041814270470029A8BF7047401C5F
:10019000490008BF20F00100704710B4B0FA80FC9D
:1001A00000FA0CF050EA010404BF10BC704749B1DA
:1001B000CCF1200421FA04F411FA0CF118BF01214A
:1001C00021430843A3EB0C01CB1D4FEA00614FEA2A
:1001D000102042BF002010BC704700EBC3501044F9
:1001E0000029A4BF10BC7047401C490008BF20F084
:1001F000010010BC70470000064C074D06E0E068A7
:1002000040F0010394E8070098471034AC42F6D35D
:10021000FFF792FF000A0008200A000800BFFEE76F
:1002200070472DE9F04102460025002600200023FA
:100230000024002791F803C00CF00F0591F803C0CB
:100240000CF0100CBCF1000F03D091F802C04CEA86
:10025000050591F800C0BCF1000F31D014680020F2
:100260002BE04FF0010C0CFA00F3B1F800C00CEADF
:1002700003069E4220D183004FF00F0C0CFA03F7C7
:10028000BC4305FA03FC4CEA040491F803C0BCF13A
:10029000280F06D14FF0010C0CFA00FCC2F814C074
:1002A0000AE091F803C0BCF1480F05D14FF0010CF2
:1002B0000CFA00FCC2F810C0401C0828D1D314600E
:1002C000B1F800C0BCF1FF0F34DD546800202EE00F
:1002D00000F1080C4FF0010808FA0CF3B1F800C067
:1002E0000CEA03069E4221D183004FF00F0C0CFA5A
:1002F00003F7BC4305FA03FC4CEA040491F803C07D
:10030000BCF1280F05D100F1080C08FA0CF8C2F86E
:10031000148091F803C0BCF1480F07D100F1080C1C
:100320004FF0010808FA0CF8C2F81080401C0828A9
:10033000CED35460BDE8F08100BFFEE700BFFEE70A
:100340007047704729B1064A92690243044B9A618B
:1003500004E0034A92698243014B9A6170470000AE
:100360000010024030B500210022002400232D4D52
:100370006D6805F00C0121B1042905D0082923D1AD
:1003800005E0294D056022E0274D05601FE0254D61
:100390006D6805F47012234D6D6805F480340225F4
:1003A00005EB92421CB9214D554305600BE01D4DF4
:1003B0006D6805F400351DB11C4D5543056002E024
:1003C000194D5543056002E0174D056000BF00BFA1
:1003D000144D6D6805F0F0010909154D6B5C056859
:1003E000DD4045600F4D6D6805F4E061090A104D70
:1003F0006B5C4568DD4085600A4D6D6805F46051B1
:10040000C90A0B4D6B5C4568DD40C560054D6D68E4
:1004100005F44041890B074D6B5CC568B5FBF3F5EE
:10042000056130BD0010024000127A0000093D0055
:100430000000002010000020704710B500F002F806
:1004400010BD00000CB500200190009033480068FA
:1004500040F480303149086000BF3048006800F443
:10046000003000900198401C0190009818B9019844
:10047000B0F5A06FF1D12948006800F4003010B148
:100480000120009001E0002000900098012843D155
:100490002348006840F010002149086008460068C1
:1004A00020F0030008600846006840F00200086081
:1004B0001A4840681949486008464068486008463C
:1004C000406840F4806048600846406820F47C1032
:1004D00048600846406840F4E810486008460068F4
:1004E00040F08070086000BF0C48006800F00070A9
:1004F0000028F9D00948406820F003000749486007
:100500000846406840F00200486000BF0348406869
:1005100000F00C000828F9D10CBD000000100240CA
:10052000002002407047000010B51348006840F0FA
:1005300001001149086008464068104908400E490A
:100540004860084600680E4908400B4908600846A4
:10055000006820F4802008600846406820F4FE000F
:1005600048604FF41F008860FFF767FF4FF000609E
:100570000449086010BD0000001002400000FFF8B0
:10058000FFFFF6FE08ED00E021B1828942F400523F
:10059000828104E082894DF6FF731A4082817047A0
:1005A0002DE9F04786B005460E460024A24600BF5E
:1005B000A1460027B08900B100BF2F462C8A4CF617
:1005C000FF700440F08804432C82AC894EF6F3108F
:1005D0000440B08831890843718908430443AC81E1
:1005E000AC8A4FF6FF400440B0890443AC8201A8B6
:1005F000FFF7B8FE1F48874202D1DDF810A001E0E6
:10060000DDF80CA0A88900F4004040B10AEBCA0054
:1006100000EB0A1031684900B0FBF1F807E00AEB83
:10062000CA0000EB0A1031688900B0FBF1F86420C1
:10063000B8FBF0F004012009642101FB1089A889AE
:1006400000F4004040B1322000EBC900B0FBF1F0F3
:1006500000F00700044308E0322000EB0910642199
:10066000B0FBF1F000F00F0004432C8106B0BDE8B0
:10067000F08700000038014000BFFEE702E008C834
:10068000121F08C1002AFAD170477047002001E00C
:1006900001C1121F002AFBD1704700004FF08041BA
:1006A000416008210160034981600349C160034939
:1006B000016170471109000801090008C10900081B
:1006C00010B50446A169E06888472046A1698847BB
:1006D00010BD10B586B0044601A8FFF7DFFF214624
:1006E00001A800F002F806B010BD2DE9F04704465D
:1006F0000F460025A8464FF07E516068FFF73AFD8F
:1007000002D84FF0804600E06668206860B16FF064
:1007100001012068B1FBF0FA5046FFF725FD814644
:100720003146FFF727FD02D80220BDE8F0871C21E3
:100730000120E268904705460DB90120F5E72268DF
:100740009000A16888478046B8F1000F04D1284680
:10075000216988470120E8E7C5F80C80AE60206871
:100760006860A0682861E06868612069A8613D60F0
:100770000020DAE708B5002000906846FFF7A9FFDF
:100780000098FFF79DFF08BD10B54FF4165000F01C
:1007900001F810BD10B586B0044601210420FFF712
:1007A000D1FD01218803FFF7CDFD4FF40070ADF8B6
:1007B000140018208DF8170003208DF8160005A9E5
:1007C0001248FFF72EFD4FF48060ADF814000420AE
:1007D0008DF8170005A90D48FFF723FD01940020AF
:1007E000ADF80800ADF80A00ADF80C00ADF8100047
:1007F0000C20ADF80E0001A90548FFF7D1FE01213C
:100800000348FFF7C1FE06B010BD0000000801401C
:1008100000380140FFF7B8FFFFF7ACFF00BFFEE76D
:1008200010B5184B23F00700174B18600023164C27
:10083000636042F2F843C218083A144B1A601B78FE
:1008400003F007030BB9012300E000230BB900BF3D
:10085000FEE700230D4C246863600C4C2468236081
:10086000014642F2F0434B60084B1B680B60084B9B
:100870001B68083B064C23604FF00043054C236087
:1008800010BD000030000020140000201C000020DB
:10089000200000202400002010B50146164800E08A
:1008A000006803688B42FBD30246436813448B42C3
:1008B00004D143684C682344436001460A464B68B0
:1008C00013440468A34211D10C4C03682468A3426A
:1008D00008D04B680468646823444B6003681B6855
:1008E0000B6005E0054B1B680B6001E003680B60C3
:1008F000884200D0016010BD140000201C000020C0
:1009000070B504460D4604FB05F000F001F870BD1B
:100910002DE9F04105464FF000082548006808B968
:10092000FFF77EFF23480068284000283CD145B1EE
:10093000083505F0070020B105F00700C0F10800F8
:1009400005448DB31C48006885422DD81B4E3046A7
:10095000046801E0264624686068A84202D2206844
:100960000028F7D11248006884421DD0306800F199
:100970000808206830606068401B102807D9671994
:100980006068401B786065603846FFF785FF0A495C
:1009900060680968081A08490860064960680968BB
:1009A00008436060002020604046BDE8F081000000
:1009B0001C00002024000020200000201400002043
:1009C00070B506463546B6B1083D2C460A49606802
:1009D0000968084078B1206868B907496068096803
:1009E00088436060054960680968084403490860F5
:1009F0002046FFF751FF70BD24000020200000209A
:100A0000200A000800000020280000007C060008E2
:100A1000480A000828000020002900008C06000871
:100A20000000000001020304010203040607080994
:100A300002040608000000000000000000000000A2
:080A4000F82400000000000092
:0400000508000145A9
:00000001FF
