:020000040800F2
:100000003029002045010008DD020008D502000863
:10001000D9020008B9010008150600080000000018
:10002000000000000000000000000000D5030008F0
:10003000BD01000800000000DF020008C104000844
:100040005F0100085F0100085F0100085F01000810
:100050005F0100085F0100085F0100085F01000800
:100060005F0100085F0100085F0100085F010008F0
:100070005F0100085F0100085F0100085F010008E0
:100080005F0100085F0100085F0100085F010008D0
:100090005F0100085F0100085F0100085F010008C0
:1000A0005F0100085F0100085F0100085F010008B0
:1000B0005F0100085F0100085F0100085F010008A0
:1000C0005F0100085F0100085F0100085F01000890
:1000D0005F0100085F0100085F0100085F01000880
:1000E0005F0100085F0100085F0100085F01000870
:1000F0005F0100085F0100085F0100085F01000860
:100100005F0100085F0100085F0100085F0100084F
:100110005F0100085F0100085F0100085F0100083F
:100120005F0100085F0100085F0100085F0100082F
:10013000DFF80CD000F02EF8004800475508000802
:10014000302900200648804706480047FEE7FEE7C2
:10015000FEE7FEE7FEE7FEE7FEE7FEE7FEE7FEE777
:10016000C50400083101000830B50B4601460020E7
:100170002022012409E021FA02F59D4205D303FA69
:1001800002F5491B04FA02F52844151EA2F10102EA
:10019000F1DC30BD064C074D06E0E06840F001039D
:1001A00094E8070098471034AC42F6D3FFF7C4FF39
:1001B000AC0A0008CC0A000800BFFEE770472DE932
:1001C000F0410246002500260020002300240027DD
:1001D00091F803C00CF00F0591F803C00CF0100C5F
:1001E000BCF1000F03D091F802C04CEA050591F86C
:1001F00000C0BCF1000F31D0146800202BE04FF09C
:10020000010C0CFA00F3B1F800C00CEA03069E42A0
:1002100020D183004FF00F0C0CFA03F7BC4305FA12
:1002200003FC4CEA040491F803C0BCF1280F06D18A
:100230004FF0010C0CFA00FCC2F814C00AE091F86F
:1002400003C0BCF1480F05D14FF0010C0CFA00FCC3
:10025000C2F810C0401C0828D1D31460B1F800C007
:10026000BCF1FF0F34DD546800202EE000F1080CD3
:100270004FF0010808FA0CF3B1F800C00CEA0306CD
:100280009E4221D183004FF00F0C0CFA03F7BC43C0
:1002900005FA03FC4CEA040491F803C0BCF1280FF2
:1002A00005D100F1080C08FA0CF8C2F8148091F896
:1002B00003C0BCF1480F07D100F1080C4FF0010852
:1002C00008FA0CF8C2F81080401C0828CED35460FD
:1002D000BDE8F08100BFFEE700BFFEE77047704752
:1002E00029B1064A92690243044B9A6104E0034A29
:1002F00092698243014B9A617047000000100240EE
:1003000030B500210022002400232D4D6D6805F03A
:100310000C0121B1042905D0082923D105E0294D7C
:10032000056022E0274D05601FE0254D6D6805F44E
:100330007012234D6D6805F48034022505EB92425E
:100340001CB9214D554305600BE01D4D6D6805F44A
:1003500000351DB11C4D5543056002E0194D554354
:10036000056002E0174D056000BF00BF144D6D68C9
:1003700005F0F0010909154D6B5C0568DD4045602D
:100380000F4D6D6805F4E061090A104D6B5C45681E
:10039000DD4085600A4D6D6805F46051C90A0B4D5A
:1003A0006B5C4568DD40C560054D6D6805F44041F6
:1003B000890B074D6B5CC568B5FBF3F5056130BD76
:1003C0000010024000127A0000093D0000000020E9
:1003D00010000020704710B500F002F810BD0000BA
:1003E0000CB50020019000903348006840F4803044
:1003F0003149086000BF3048006800F400300090C8
:100400000198401C0190009818B90198B0F5A06FB0
:10041000F1D12948006800F4003010B101200090AB
:1004200001E0002000900098012843D12348006893
:1004300040F01000214908600846006820F00300E1
:1004400008600846006840F0020008601A484068EA
:10045000194948600846406848600846406840F4CA
:10046000806048600846406820F47C104860084678
:10047000406840F4E81048600846006840F080702A
:10048000086000BF0C48006800F000700028F9D038
:100490000948406820F00300074948600846406862
:1004A00040F00200486000BF0348406800F00C00C4
:1004B0000828F9D10CBD00000010024000200240C5
:1004C0007047000010B51348006840F00100114962
:1004D000086008464068104908400E4948600846D0
:1004E00000680E4908400B4908600846006820F47F
:1004F000802008600846406820F4FE0048604FF401
:100500001F008860FFF767FF4FF000600449086034
:1005100010BD0000001002400000FFF8FFFFF6FED3
:1005200008ED00E021B1828942F40052828104E0AA
:1005300082894DF6FF731A40828170472DE9F0479A
:1005400086B005460E460024A24600BFA1460027FD
:10055000B08900B100BF2F462C8A4CF6FF700440D2
:10056000F08804432C82AC894EF6F3100440B08826
:1005700031890843718908430443AC81AC8A4FF642
:10058000FF400440B0890443AC8201A8FFF7B8FEE5
:100590001F48874202D1DDF810A001E0DDF80CA071
:1005A000A88900F4004040B10AEBCA0000EB0A1031
:1005B00031684900B0FBF1F807E00AEBCA0000EB34
:1005C0000A1031688900B0FBF1F86420B8FBF0F044
:1005D00004012009642101FB1089A88900F400406E
:1005E00040B1322000EBC900B0FBF1F000F0070091
:1005F000044308E0322000EB09106421B0FBF1F065
:1006000000F00F0004432C8106B0BDE8F087000025
:100610000038014000BFFEE70FB4054B10B503A939
:10062000044A029800F018F810BC5DF814FB0000B2
:10063000390800081400002002E008C8121F08C191
:10064000002AFAD170477047002001E001C1121F53
:10065000002AFBD1704700002DE9FF4F89B09B466F
:100660000446002506E025280BD05A460B999047F2
:10067000641C6D1C20780028F5D10DB02846BDE81B
:10068000F08F0027B8460122474900E0074314F8DD
:10069000013F203B02FA03F00842F7D120782E28D0
:1006A00019D114F8010F47F004072A280ED06FF073
:1006B0002F022078A0F1300109290CD808EB88011D
:1006C00002EB410100EB0108641CF2E70A98641C8C
:1006D00050F8048B0A9020780028CED0642808D0E7
:1006E000692806D075281ED05A460B9990476D1C74
:1006F00058E00A994FF00A0901C90A91002802DA64
:1007000040422D2102E0390504D52B218DF820101F
:10071000012103E0F90704D02021F7E78A4608AE5B
:100720000DE00021FAE70A994FF00A0901C90A9180
:10073000F7E74946FFF718FD303106F8011D00289C
:10074000F7D1ADEB060000F12009780701D44FF096
:100750000108C84502DDA8EB090000E00020804642
:10076000002706E008A85A46C05D0B9990476D1C0B
:100770007F1C5745F6DB04E030205A460B99904722
:100780006D1CB8F10001A8F10108F5DC05E016F8D0
:10079000010B5A460B9990476D1CB9F10001A9F164
:1007A0000109F4DC641C65E70928010010B54FF469
:1007B000165000F001F810BD10B586B004460121B6
:1007C0000420FFF78DFD01218803FFF789FD4FF419
:1007D0000070ADF8140018208DF8170003208DF874
:1007E000160005A91248FFF7EAFC4FF48060ADF847
:1007F000140004208DF8170005A90D48FFF7DFFC51
:1008000001940020ADF80800ADF80A00ADF80C0026
:10081000ADF810000C20ADF80E0001A90548FFF757
:100820008DFE01210348FFF77DFE06B010BD0000DC
:10083000000801400038014000BF054A128802F05C
:100840004002002AF9D0C2B2014B1B1D1A8070472A
:1008500000380140FFF7AAFF00F002F800BFFEE7F2
:100860002DE9F0410024002500260027802000F01B
:100870009FF80446802000F09BF80546802000F099
:1008800097F8064600F00CF9074639460AA0FFF72C
:10089000C3FE204600F0E4F8284600F0E1F83046B8
:1008A00000F0DEF800F0FCF80746394602A0FFF73A
:1008B000B3FEBDE8F0810000686561702072656D6F
:1008C00061696E2073697A65203A2025640D000005
:1008D00010B5184B23F00700174B18600023164C77
:1008E000636042F2F843C218083A144B1A601B784E
:1008F00003F007030BB9012300E000230BB900BF8D
:10090000FEE700230D4C246863600C4C24682360D0
:10091000014642F2F0434B60084B1B680B60084BEA
:100920001B68083B064C23604FF00043054C2360D6
:1009300010BD00003400002018000020200000201E
:10094000240000202800002010B50146164800E0D1
:10095000006803688B42FBD30246436813448B4212
:1009600004D143684C682344436001460A464B68FF
:1009700013440468A34211D10C4C03682468A342B9
:1009800008D04B680468646823444B6003681B68A4
:100990000B6005E0054B1B680B6001E003680B6012
:1009A000884200D0016010BD180000202000002007
:1009B0002DE9F04105464FF000082548006808B9C8
:1009C000FFF786FF23480068284000283CD145B146
:1009D000083505F0070020B105F00700C0F1080058
:1009E00005448DB31C48006885422DD81B4E304607
:1009F000046801E0264624686068A84202D22068A4
:100A00000028F7D11248006884421DD0306800F1F8
:100A10000808206830606068401B102807D96719F3
:100A20006068401B786065603846FFF78DFF0A49B3
:100A300060680968081A084908600649606809681A
:100A400008436060002020604046BDE8F08100005F
:100A50002000002028000020240000201800002092
:100A600070B506463546B6B1083D2C460A49606861
:100A70000968084078B1206868B907496068096862
:100A80008843606005496068096808440349086054
:100A90002046FFF759FF70BD2800002024000020E9
:100AA000014800687047000024000020CC0A0008BC
:100AB000000000202C00000038060008F80A00089A
:100AC0002C00002004290000480600080000000057
:100AD00001020304010203040607080902040608D0
:100AE0000000000000000000000000000000000006
:080AF000F824000000000000E2
:0400000508000145A9
:00000001FF
