:020000040800F2
:100000002829002045010008350400082D040008B7
:1000100031040008110300086D070008000000000B
:100020000000000000000000000000002D05000896
:100030001503000800000000370400081906000836
:100040005F0100085F0100085F0100085F01000810
:100050005F0100085F0100085F0100085F01000800
:100060005F0100085F0100085F0100085F010008F0
:100070005F0100085F0100085F0100085F010008E0
:100080005F0100085F0100085F0100085F010008D0
:100090005F0100085F0100085F0100085F010008C0
:1000A0005F0100085F0100085F0100085F010008B0
:1000B0005F0100085F0100085F0100085F010008A0
:1000C0005F0100085F0100085F0100085F01000890
:1000D0005F0100085F0100085F0100085F01000880
:1000E0005F0100085F0100085F0100085F01000870
:1000F0005F0100085F0100085F0100085F01000860
:100100005F0100085F0100085F0100085F0100084F
:100110005F0100085F0100085F0100085F0100083F
:100120005F0100085F0100085F0100085F0100082F
:10013000DFF80CD000F0DAF800480047170C000890
:10014000282900200648804706480047FEE7FEE7CA
:10015000FEE7FEE7FEE7FEE7FEE7FEE7FEE7FEE777
:100160001D0600083101000810B5431A934209D258
:100170008318881803E010F8011D03F8011D521EB2
:10018000F9D210BD40EA01039B0703D009E008C97A
:10019000121F08C0042AFAD203E011F8013B00F84C
:1001A000013B521EF9D210BDD2B201E000F8012B82
:1001B000491EFBD270470022F6E710B513460A46E7
:1001C00004461946FFF7F0FF204610BD10B5002287
:1001D00000E0521C835C8C5CA34201D1002BF8D15F
:1001E000D8B2E1B2401A10BD80EA010210B502F0A7
:1001F0000043400022D04A001FD0010E01EB1261E3
:10020000C0F35600C2F3560240F4000042F400026C
:10021000A0FB022000047F39140400D0401C50EAE7
:10022000124001D44000491EC2B20C0604EBD010AB
:10023000401C4008802A02D003E0002010BD20F0BE
:100240000100002900DA0020184310BD9623002287
:10025000114600F01DB820F00040C10DC0F316009B
:1002600040F400007F2901DA00207047962903DC62
:10027000C1F19601C84070479639884070470029FF
:10028000A8BF7047401C490008BF20F0010070471C
:1002900010B4B0FA80FC00FA0CF050EA010404BF7C
:1002A00010BC704749B1CCF1200421FA04F411FAD2
:1002B0000CF118BF012121430843A3EB0C01CB1D16
:1002C0004FEA00614FEA102042BF002010BC704787
:1002D00000EBC35010440029A4BF10BC7047401C61
:1002E000490008BF20F0010010BC7047064C074DC4
:1002F00006E0E06840F0010394E8070098471034F6
:10030000AC42F6D3FFF718FFF010000810110008F8
:1003100000BFFEE770472DE9F041024600250026A8
:10032000002000230024002791F803C00CF00F05E3
:1003300091F803C00CF0100CBCF1000F03D091F841
:1003400002C04CEA050591F800C0BCF1000F31D0A5
:10035000146800202BE04FF0010C0CFA00F3B1F808
:1003600000C00CEA03069E4220D183004FF00F0C20
:100370000CFA03F7BC4305FA03FC4CEA040491F8B9
:1003800003C0BCF1280F06D14FF0010C0CFA00FCA1
:10039000C2F814C00AE091F803C0BCF1480F05D1BF
:1003A0004FF0010C0CFA00FCC2F810C0401C0828E9
:1003B000D1D31460B1F800C0BCF1FF0F34DD546834
:1003C00000202EE000F1080C4FF0010808FA0CF3B1
:1003D000B1F800C00CEA03069E4221D183004FF021
:1003E0000F0C0CFA03F7BC4305FA03FC4CEA0404B7
:1003F00091F803C0BCF1280F05D100F1080C08FAF0
:100400000CF8C2F8148091F803C0BCF1480F07D172
:1004100000F1080C4FF0010808FA0CF8C2F810803F
:10042000401C0828CED35460BDE8F08100BFFEE731
:1004300000BFFEE77047704729B1064A9269024340
:10044000044B9A6104E0034A92698243014B9A612A
:10045000704700000010024030B500210022002447
:1004600000232D4D6D6805F00C0121B1042905D044
:10047000082923D105E0294D056022E0274D0560BC
:100480001FE0254D6D6805F47012234D6D6805F46D
:100490008034022505EB92421CB9214D554305607D
:1004A0000BE01D4D6D6805F400351DB11C4D554325
:1004B000056002E0194D5543056002E0174D0560E7
:1004C00000BF00BF144D6D6805F0F0010909154D1E
:1004D0006B5C0568DD4045600F4D6D6805F4E061BB
:1004E000090A104D6B5C4568DD4085600A4D6D68FA
:1004F00005F46051C90A0B4D6B5C4568DD40C56071
:10050000054D6D6805F44041890B074D6B5CC5686E
:10051000B5FBF3F5056130BD0010024000127A0012
:1005200000093D000000002010000020704710B5B9
:1005300000F002F810BD00000CB500200190009002
:100540003348006840F480303149086000BF3048CB
:10055000006800F4003000900198401C0190009861
:1005600018B90198B0F5A06FF1D12948006800F4DE
:10057000003010B10120009001E0002000900098B0
:10058000012843D12348006840F010002149086049
:100590000846006820F0030008600846006840F044
:1005A000020008601A4840681949486008464068D7
:1005B00048600846406840F48060486008464068EB
:1005C00020F47C1048600846406840F4E810486019
:1005D0000846006840F08070086000BF0C48006862
:1005E00000F000700028F9D00948406820F00300AE
:1005F000074948600846406840F00200486000BF74
:100600000348406800F00C000828F9D10CBD000038
:1006100000100240002002407047000010B513484F
:10062000006840F001001149086008464068104920
:1006300008400E494860084600680E4908400B49CA
:1006400008600846006820F480200860084640687A
:1006500020F4FE0048604FF41F008860FFF767FF3A
:100660004FF000600449086010BD00000010024017
:100670000000FFF8FFFFF6FE08ED00E021B18289DF
:1006800042F40052828104E082894DF6FF731A40E1
:10069000828170472DE9F04786B005460E4600245A
:1006A000A24600BFA1460027B08900B100BF2F4677
:1006B0002C8A4CF6FF700440F08804432C82AC89ED
:1006C0004EF6F3100440B08831890843718908431D
:1006D0000443AC81AC8A4FF6FF400440B089044328
:1006E000AC8201A8FFF7B8FE1F48874202D1DDF8AF
:1006F00010A001E0DDF80CA0A88900F4004040B192
:100700000AEBCA0000EB0A1031684900B0FBF1F8AF
:1007100007E00AEBCA0000EB0A1031688900B0FB61
:10072000F1F86420B8FBF0F004012009642101FB1A
:100730001089A88900F4004040B1322000EBC900C4
:10074000B0FBF1F000F00700044308E0322000EBBA
:1007500009106421B0FBF1F000F00F0004432C817C
:1007600006B0BDE8F08700000038014000BFFEE79A
:1007700002E008C8121F08C1002AFAD1704770476A
:10078000002001E001C1121F002AFBD170472DE9B2
:10079000F04104460F46A0690668002506E030686F
:1007A00018B977600020BDE8F081F668002EF6D118
:1007B0001020616A884705460DB90120F3E7002043
:1007C00028606F60A860A0690068E860A0690560A3
:1007D0006068401C60600020E5E710B54FF41650DB
:1007E00000F00AF810BD70B504460D4629462046B3
:1007F000FFF7ECFC70BD000010B586B00446012187
:100800000420FFF719FE01218803FFF715FE4FF4BE
:100810000070ADF8140018208DF8170003208DF833
:10082000160005A91248FFF776FD4FF48060ADF879
:10083000140004208DF8170005A90D48FFF76BFD83
:1008400001940020ADF80800ADF80A00ADF80C00E6
:10085000ADF810000C20ADF80E0001A90548FFF717
:1008600019FF01210348FFF709FF06B010BD000082
:10087000000801400038014070B504460D46284686
:10088000E369D4E90321984706462068401E3040BA
:1008900070BD70B504460D462946D4E9000200F04B
:1008A0007DF870BD10B50446204600F0CFF810BDAD
:1008B00070B504460D462946206800F0E7F870BD83
:1008C00010B50446206800F0F8F8204621698847F2
:1008D00010BD10B58AB0044601A8FFF7E3FF21461A
:1008E00001A800F002F80AB010BDF8B505460F46A1
:1008F00014210120EA6990470446002000900CB9B9
:100900000120F8BD6946284600F008F9064626B1E0
:100910002046296A88473046F3E700982060A86996
:10092000A060E869E060286A2061012060603C60A6
:100930000020E6E770B504460D46164632462946C5
:10094000206800F028F970BD10B58EB0002400209A
:100950000D902C22104902A8FFF706FC01A8FFF712
:10096000B8FF00BF06E002A850F824100198FFF776
:1009700090FF641C0B2CF6D307990198FFF798FFA2
:1009800020B10DAA07990198FFF7D4FF0198FFF74E
:1009900097FF0EB010BD00007C1000082DE9F84F45
:1009A00004460E4617464FF0000A0025002000902E
:1009B000D4E9010188420AD320684100204600F0B2
:1009C00053FA5FEA000B02D05846BDE8F88F26B90B
:1009D00039462046FFF7DBFEF7E73046E369D4E906
:1009E0000321984780462168491E01EA0809A06949
:1009F00050F829A00FE0DAF800000090009840B10C
:100A00003146226A0098904718B9CAF8047000204D
:100A1000DBE7DAF80CA0BAF1000FECD11020616A24
:100A2000884705460DB90120CFE72E606F60C5F8F5
:100A30000880A06950F82900E860A06940F82950B2
:100A40006068401C60600020BFE700000A49016147
:100A50000A494161102141604FF07D5101604FF022
:100A6000FF3181600021C160054981610549C16193
:100A70000549016270470000F50A0008E707000811
:100A8000650D0008450D0008F50E000870B5044618
:100A90000E4631462046FFF7EFFEA16951F820507F
:100AA00007E029683046226A904708B9012070BDE6
:100AB000ED68002DF5D10020F9E72DE9F04104465D
:100AC00000250CE0A06950F8256005E0F768304685
:100AD000E16A88473E4600BF002EF7D16D1C2068B2
:100AE000A842EFD8E16AA06988472046E16A8847B2
:100AF000BDE8F08170B503460C46194641F2055534
:100B000015442544681C04E000EB40150E7885EA86
:100B1000060011F8016B002EF6D170BD2DE9F041F1
:100B200005460E4630210120EA699047044614B973
:100B30000120BDE8F081686800F0C4F920602068F9
:100B40000421EA699047A061A06920B92046296A7A
:100B500088470120EDE72869E0616869206228681C
:100B60006061E868E060A868206100206060A869B2
:100B70006062E869A062286AE0622068FFF766FBAD
:100B800080466169FFF730FB0746FFF764FBA06012
:100B900034600020CDE72DE9F05F04468846164614
:100BA0000025AA46A946AB46B8F1000F05D131464B
:100BB000204600F02FF9BDE8F09F41462046FFF7A0
:100BC0005BFE0746A16951F8275020E0D5F80C904C
:100BD0002868D0B129684046226A9047A8B9D5F85C
:100BE00004B0BAF1000F03D1A06940F8279001E0EA
:100BF000CAF80C902846E16A88476068401E606029
:100C00000EB1C6F800B00020D5E7AA464D46002D2B
:100C1000DCD10620CFE7FFF7E0FDFFF795FE00BF30
:100C2000FEE72DE9F041044615461E460020002748
:100C3000002213E054F822000DE0C768A6F1010875
:100C4000D0F808C00CEA080351F823C0C0F80CC063
:100C500041F8230038460028EFD1521CAA42E9D3BC
:100C6000BDE8F08110B5184B23F00700174B186052
:100C70000023164C636042F2F843C218083A144B42
:100C80001A601B7803F007030BB9012300E000236F
:100C90000BB900BFFEE700230D4C246863600C4CC9
:100CA00024682360014642F2F0434B60084B1B6806
:100CB0000B60084B1B68083B064C23604FF0004359
:100CC000054C236010BD00003000002014000020FF
:100CD0001C000020200000202400002010B5014648
:100CE000164800E0006803688B42FBD30246436865
:100CF00013448B4204D143684C682344436001464B
:100D00000A464B6813440468A34211D10C4C036893
:100D10002468A34208D04B680468646823444B608D
:100D200003681B680B6005E0054B1B680B6001E066
:100D300003680B60884200D0016010BD14000020E1
:100D40001C00002070B504460D46002604FB05F08B
:100D500000F008F8064604FB05F13046FFF72BFAD1
:100D6000304670BD2DE9F04105464FF0000825489A
:100D7000006808B9FFF776FF23480068284000287C
:100D80003CD145B1083505F0070020B105F007005A
:100D9000C0F1080005448DB31C48006885422DD879
:100DA0001B4E3046046801E0264624686068A8426D
:100DB00002D220680028F7D11248006884421DD072
:100DC000306800F10808206830606068401B102817
:100DD00007D967196068401B786065603846FFF77F
:100DE0007DFF0A4960680968081A084908600649D1
:100DF0006068096808436060002020604046BDE8E4
:100E0000F08100001C0000202400002020000020B1
:100E1000140000202DE9F04704460E46A06905683D
:100E20004FF000080027B9461AE0EF682868A8B913
:100E3000D5F80490B8F1000F02D1A069076001E075
:100E4000C8F80C702846E16A88476068401E6060F8
:100E50000EB1C6F800900020BDE8F087A8463D46D8
:100E6000002DE2D10620F7E72DE9F04704460D46B4
:100E7000002600272068B0F1004F02D10420BDE811
:100E8000F08704212846A26A904706460EB9012041
:100E9000F5E7A7692B46314638462268FFF7C1FEC1
:100EA000A66125602846FFF7D1F981466169FFF701
:100EB0009BF98046FFF7CFF9A0603846E16A884782
:100EC0000020DCE70146B1F1004F02D34FF00040B3
:100ED000704709B90220FBE7491E41EA510141EA86
:100EE000910141EA111141EA112141EA1141491CE4
:100EF0000846EDE770B506463546B6B1083D2C46C6
:100F00000A4960680968084078B1206868B90749EB
:100F1000606809688843606005496068096808443A
:100F2000034908602046FFF7D9FE70BD2400002069
:100F3000200000200100000002000000030000006B
:100F4000040000000500000006000000070000008B
:100F500008000000090000000A0000000100000075
:100F60000200000003000000040000000500000073
:100F70000600000007000000080000000900000053
:100F80000A00000001000000020000000300000051
:100F9000040000000500000006000000070000003B
:100FA00008000000090000000A0000000100000025
:100FB0000200000003000000040000000500000023
:100FC0000600000007000000080000000900000003
:100FD0000A00000001000000020000000300000001
:100FE00004000000050000000600000007000000EB
:100FF00008000000090000000A00000001000000D5
:1010000002000000030000000400000005000000D2
:1010100006000000070000000800000009000000B2
:101020000A000000D0100008B8100008D81000080E
:10103000A8100008DC100008BC100008EC10000824
:10104000C8100008E4100008B0100008C410000820
:10105000000000000100000002000000030000008A
:10106000040000000500000006000000070000006A
:1010700008000000090000000A000000D01000086D
:10108000B8100008D8100008A8100008DC100008EC
:10109000BC100008EC100008C8100008E41000089C
:1010A000B0100008C4100008746872656500000084
:1010B0006E696E65000000006F6E6500666976659A
:1010C0000000000074656E00736576656E000000B8
:1010D0007A65726F0000000074776F00666F75723A
:1010E000000000006569676874000000736978009B
:1010F0001011000800000020280000007007000800
:10110000381100082800002000290000800700088E
:10111000000000000102030401020304060708099D
:1011200002040608000000000000000000000000AB
:08113000F8240000000000009B
:0400000508000145A9
:00000001FF
