:020000040800F2
:100000003029002045010008410300083903000899
:100010003D0300081D0200087906000800000000EA
:10002000000000000000000000000000390400088B
:100030002102000800000000430300082505000815
:100040005F0100085F0100085F0100085F01000810
:100050005F0100085F0100085F0100085F01000800
:100060005F0100085F0100085F0100085F010008F0
:100070005F0100085F0100085F0100085F010008E0
:100080005F0100085F0100085F0100085F010008D0
:100090005F0100085F0100085F0100085F010008C0
:1000A0005F0100085F0100085F0100085F010008B0
:1000B0005F0100085F0100085F0100085F010008A0
:1000C0005F0100085F0100085F0100085F01000890
:1000D0005F0100085F0100085F0100085F01000880
:1000E0005F0100085F0100085F0100085F01000870
:1000F0005F0100085F0100085F0100085F01000860
:100100005F0100085F0100085F0100085F0100084F
:100110005F0100085F0100085F0100085F0100083F
:100120005F0100085F0100085F0100085F0100082F
:10013000DFF80CD000F060F8004800471D09000807
:10014000302900200648804706480047FEE7FEE7C2
:10015000FEE7FEE7FEE7FEE7FEE7FEE7FEE7FEE777
:10016000290500083101000810B5431A934209D24D
:100170008318881803E010F8011D03F8011D521EB2
:10018000F9D210BD40EA01039B0703D009E008C97A
:10019000121F08C0042AFAD203E011F8013B00F84C
:1001A000013B521EF9D210BDD2B201E000F8012B82
:1001B000491EFBD270470022F6E710B513460A46E7
:1001C00004461946FFF7F0FF204610BD30B50B4638
:1001D000014600202022012409E021FA02F59D4277
:1001E00005D303FA02F5491B04FA02F52844151E4B
:1001F000A2F10102F1DC30BD064C074D06E0E068DB
:1002000040F0010394E8070098471034AC42F6D35D
:10021000FFF792FF600E0008800E000800BFFEE7A7
:1002200070472DE9F04102460025002600200023FA
:100230000024002791F803C00CF00F0591F803C0CB
:100240000CF0100CBCF1000F03D091F802C04CEA86
:10025000050591F800C0BCF1000F31D014680020F2
:100260002BE04FF0010C0CFA00F3B1F800C00CEADF
:1002700003069E4220D183004FF00F0C0CFA03F7C7
:10028000BC4305FA03FC4CEA040491F803C0BCF13A
:10029000280F06D14FF0010C0CFA00FCC2F814C074
:1002A0000AE091F803C0BCF1480F05D14FF0010CF2
:1002B0000CFA00FCC2F810C0401C0828D1D314600E
:1002C000B1F800C0BCF1FF0F34DD546800202EE00F
:1002D00000F1080C4FF0010808FA0CF3B1F800C067
:1002E0000CEA03069E4221D183004FF00F0C0CFA5A
:1002F00003F7BC4305FA03FC4CEA040491F803C07D
:10030000BCF1280F05D100F1080C08FA0CF8C2F86E
:10031000148091F803C0BCF1480F07D100F1080C1C
:100320004FF0010808FA0CF8C2F81080401C0828A9
:10033000CED35460BDE8F08100BFFEE700BFFEE70A
:100340007047704729B1064A92690243044B9A618B
:1003500004E0034A92698243014B9A6170470000AE
:100360000010024030B500210022002400232D4D52
:100370006D6805F00C0121B1042905D0082923D1AD
:1003800005E0294D056022E0274D05601FE0254D61
:100390006D6805F47012234D6D6805F480340225F4
:1003A00005EB92421CB9214D554305600BE01D4DF4
:1003B0006D6805F400351DB11C4D5543056002E024
:1003C000194D5543056002E0174D056000BF00BFA1
:1003D000144D6D6805F0F0010909154D6B5C056859
:1003E000DD4045600F4D6D6805F4E061090A104D70
:1003F0006B5C4568DD4085600A4D6D6805F46051B1
:10040000C90A0B4D6B5C4568DD40C560054D6D68E4
:1004100005F44041890B074D6B5CC568B5FBF3F5EE
:10042000056130BD0010024000127A0000093D0055
:100430000000002010000020704710B500F002F806
:1004400010BD00000CB500200190009033480068FA
:1004500040F480303149086000BF3048006800F443
:10046000003000900198401C0190009818B9019844
:10047000B0F5A06FF1D12948006800F4003010B148
:100480000120009001E0002000900098012843D155
:100490002348006840F010002149086008460068C1
:1004A00020F0030008600846006840F00200086081
:1004B0001A4840681949486008464068486008463C
:1004C000406840F4806048600846406820F47C1032
:1004D00048600846406840F4E810486008460068F4
:1004E00040F08070086000BF0C48006800F00070A9
:1004F0000028F9D00948406820F003000749486007
:100500000846406840F00200486000BF0348406869
:1005100000F00C000828F9D10CBD000000100240CA
:10052000002002407047000010B51348006840F0FA
:1005300001001149086008464068104908400E490A
:100540004860084600680E4908400B4908600846A4
:10055000006820F4802008600846406820F4FE000F
:1005600048604FF41F008860FFF767FF4FF000609E
:100570000449086010BD0000001002400000FFF8B0
:10058000FFFFF6FE08ED00E021B1828942F400523F
:10059000828104E082894DF6FF731A4082817047A0
:1005A0002DE9F04786B005460E460024A24600BF5E
:1005B000A1460027B08900B100BF2F462C8A4CF617
:1005C000FF700440F08804432C82AC894EF6F3108F
:1005D0000440B08831890843718908430443AC81E1
:1005E000AC8A4FF6FF400440B0890443AC8201A8B6
:1005F000FFF7B8FE1F48874202D1DDF810A001E0E6
:10060000DDF80CA0A88900F4004040B10AEBCA0054
:1006100000EB0A1031684900B0FBF1F807E00AEB83
:10062000CA0000EB0A1031688900B0FBF1F86420C1
:10063000B8FBF0F004012009642101FB1089A889AE
:1006400000F4004040B1322000EBC900B0FBF1F0F3
:1006500000F00700044308E0322000EB0910642199
:10066000B0FBF1F000F00F0004432C8106B0BDE8B0
:10067000F08700000038014000BFFEE70FB4054BD3
:1006800010B503A9044A029800F018F810BC5DF8F0
:1006900014FB0000010900081400002002E008C853
:1006A000121F08C1002AFAD170477047002001E0EC
:1006B00001C1121F002AFBD1704700002DE9FF4F36
:1006C0008BB09A460F460546002606E025280BD03B
:1006D00052460D9990476D1C761C28780028F5D15C
:1006E0000FB03046BDE8F08F0024A04601226049DB
:1006F00000E0044315F8013F203B02FA03F00842F2
:10070000F7D128782E2817D115F8010F44F00404EA
:100710002A280ED06FF02F022878A0F13001092985
:100720000AD808EB880102EB410100EB01086D1CBF
:10073000F2E757F8048B6D1C287869283ED006DC58
:100740000028CDD063280BD0642804D136E073286C
:1007500010D075284BD052460D999047761C85E0F5
:1007600017F8040B8DF8000000208DF80100E94611
:10077000012003E057F8049B4FF0FF3061074FF072
:10078000000401D40AE0641C44450DDA8442FADB1B
:1007900019F804100029F6D106E0641C8442FCDB41
:1007A00019F804100029F8D1264404E019F8010BC7
:1007B00052460D999047641EF8D257E001CF4FF092
:1007C0000A0B002802DA40422D2102E0210504D55F
:1007D0002B218DF82410012103E0E10705D0202111
:1007E000F7E70DF1200908910CE00021F9E701CFAE
:1007F0004FF00A0BF9E75946FFF7E8FC01F1300228
:1008000009F8012D0028F6D1ADEB090000F1200B0D
:10081000600701D44FF00108D84502DDA8EB0B00BA
:1008200000E000208046002406E009A85246005D52
:100830000D999047641C761C08988442F5DB04E00F
:10084000302052460D999047761CB8F10001A8F16E
:100850000108F5DC05E019F8010B52460D999047A7
:10086000761CBBF10001ABF1010BF4DC6D1C34E72D
:100870000928010010B54FF4165000F001F810BD22
:1008800010B586B0044601210420FFF75BFD01216D
:100890008803FFF757FD4FF40070ADF814001820DF
:1008A0008DF8170003208DF8160005A91248FFF7F0
:1008B000B8FC4FF48060ADF8140004208DF81700E8
:1008C00005A90D48FFF7ADFC01940020ADF8080024
:1008D000ADF80A00ADF80C00ADF810000C20ADF832
:1008E0000E0001A90548FFF75BFE01210348FFF751
:1008F0004BFE06B010BD000000080140003801406A
:1009000000BF054A128802F04002002AF9D0C2B2A4
:10091000014B1B1D1A80704700380140FFF7AAFFEA
:1009200000F078F900BFFEE710B5184B23F0070080
:10093000174B18600023164C636042F2F843C2184C
:10094000083A144B1A601B7803F007030BB9012314
:1009500000E000230BB900BFFEE700230D4C246824
:1009600063600C4C24682360014642F2F0434B6004
:10097000084B1B680B60084B1B68083B064C236048
:100980004FF00043054C236010BD000034000020F0
:100990001800002020000020240000202800002053
:1009A00010B50146164800E0006803688B42FBD38F
:1009B0000246436813448B4204D143684C68234485
:1009C000436001460A464B6813440468A34211D1B0
:1009D0000C4C03682468A34208D04B680468646820
:1009E00023444B6003681B680B6005E0054B1B68E4
:1009F0000B6001E003680B60884200D0016010BD0D
:100A0000180000202000002070B504460D46002686
:100A100004FB05F000F008F8064604FB05F130463B
:100A2000FFF7C9FB304670BD2DE9F04105464FF098
:100A300000082548006808B9FFF776FF23480068DA
:100A4000284000283CD145B1083505F0070020B109
:100A500005F00700C0F1080005448DB31C4800688C
:100A600085422DD81B4E3046046801E02646246896
:100A70006068A84202D220680028F7D112480068B6
:100A800084421DD0306800F108082068306060683A
:100A9000401B102807D967196068401B78606560A3
:100AA0003846FFF77DFF0A4960680968081A084957
:100AB000086006496068096808436060002020609B
:100AC0004046BDE8F0810000200000202800002002
:100AD000240000201800002070B504460D46294669
:100AE000204600F001F870BD70B504460E4608219E
:100AF00001202269904705460DB9012070BD2E6086
:100B0000206810B96560A56002E0A0684560A56036
:100B10002068401C20600020F0E7000003490160CD
:100B2000034941600349816070470000290A0008B9
:100B3000090A0008590D000810B50446204600F0C7
:100B400058F820466169884710BD00220260416064
:100B5000C26002614A688260704702460023906862
:100B600008B90920704790680368D06808B1D06858
:100B700010619068D0609068406890601068401C78
:100B800010600B600020EDE770B504460D460026AE
:100B9000E06808B9072070BDD4E90312606800F06E
:100BA000A5F806460020E0602068401E206005B1E0
:100BB0002E600020EFE73EB504466846FFF7AEFF23
:100BC0002146684600F001F83EBD70B504460E4669
:100BD000182101206268904705460DB9012070BDBB
:100BE0002068E86060682861A0686861356000205E
:100BF000F5E770B504460021204600F08FF8054661
:100C00001DB100206060A06070BD0720FCE70146B8
:100C10000868704710B592B0002400201190282277
:100C20001D4907A8FFF7A0FA0020069006A8FFF7C5
:100C3000C2FF00BF06E007A800EB84010698FFF79B
:100C40004BFF641C0A2CF6D301A80699FFF77DFF21
:100C500007E011980068032803D1002101A8FFF7DD
:100C600093FF11A901A8FFF778FF0928F1D100BF70
:100C70000698FFF7CCFF092807D000BF07A3D222B0
:100C800008A10FA0FFF7FAFC00BF00BF0698FFF70E
:100C900053FF12B010BD0000380E00086D61696E80
:100CA0002E630000736C6973745F697465725F72A0
:100CB000656D6F7665206572726F722000000000AE
:100CC000417373657274696F6E20222573222066EA
:100CD00061696C6564206174206C696E65202564AF
:100CE00020696E2025730D0A000000002DE9F041F7
:100CF00004460D4616462F6816B16868706001E01C
:100D000068686060686800B9A660284661698847BD
:100D10002068401E20603846BDE8F0812DE9F04192
:100D200004460E4600250027206810B90020BDE8C3
:100D3000F08165680BE06F6816B1286861698847C3
:100D40002846616988473D462068401E2060002D86
:100D5000F1D10120EBE7000070B506463546B6B18B
:100D6000083D2C460A4960680968084078B1206847
:100D700068B9074960680968884360600549606828
:100D800009680844034908602046FFF709FE70BD62
:100D900028000020240000200100000002000000C4
:100DA0000300000004000000050000000600000031
:100DB0000700000008000000090000000A00000011
:100DC0000100000002000000030000000400000019
:100DD00005000000060000000700000008000000F9
:100DE000090000000A0000000100000002000000ED
:100DF00003000000040000000500000006000000E1
:100E00000700000008000000090000000A000000C0
:100E100001000000020000000300000004000000C8
:100E200005000000060000000700000008000000A8
:100E3000090000000A00000001000000020000009C
:100E40000300000004000000050000000600000090
:100E50000700000008000000090000000A00000070
:100E6000800E0008000000202C0000009C060008F6
:100E7000AC0E00082C00002004290000AC0600087D
:100E80000000000001020304010203040607080930
:100E9000020406080000000000000000000000003E
:0C0EA00000000000F8240000000000002A
:0400000508000145A9
:00000001FF
