:020000040800F2
:100000002829002045010008150300080D030008F9
:1000100011030008F10100084D060008000000006F
:100020000000000000000000000000000D040008B7
:10003000F50100080000000017030008F90400089B
:100040005F0100085F0100085F0100085F01000810
:100050005F0100085F0100085F0100085F01000800
:100060005F0100085F0100085F0100085F010008F0
:100070005F0100085F0100085F0100085F010008E0
:100080005F0100085F0100085F0100085F010008D0
:100090005F0100085F0100085F0100085F010008C0
:1000A0005F0100085F0100085F0100085F010008B0
:1000B0005F0100085F0100085F0100085F010008A0
:1000C0005F0100085F0100085F0100085F01000890
:1000D0005F0100085F0100085F0100085F01000880
:1000E0005F0100085F0100085F0100085F01000870
:1000F0005F0100085F0100085F0100085F01000860
:100100005F0100085F0100085F0100085F0100084F
:100110005F0100085F0100085F0100085F0100083F
:100120005F0100085F0100085F0100085F0100082F
:10013000DFF80CD000F04AF80048004779070008C3
:10014000282900200648804706480047FEE7FEE7CA
:10015000FEE7FEE7FEE7FEE7FEE7FEE7FEE7FEE777
:10016000FD0400083101000810B5431A934209D27A
:100170008318881803E010F8011D03F8011D521EB2
:10018000F9D210BD40EA01039B0703D009E008C97A
:10019000121F08C0042AFAD203E011F8013B00F84C
:1001A000013B521EF9D210BDD2B201E000F8012B82
:1001B000491EFBD270470022F6E710B513460A46E7
:1001C00004461946FFF7F0FF204610BD064C074DC8
:1001D00006E0E06840F0010394E807009847103417
:1001E000AC42F6D3FFF7A8FF701100089011000889
:1001F00000BFFEE770472DE9F041024600250026CA
:10020000002000230024002791F803C00CF00F0504
:1002100091F803C00CF0100CBCF1000F03D091F862
:1002200002C04CEA050591F800C0BCF1000F31D0C6
:10023000146800202BE04FF0010C0CFA00F3B1F829
:1002400000C00CEA03069E4220D183004FF00F0C41
:100250000CFA03F7BC4305FA03FC4CEA040491F8DA
:1002600003C0BCF1280F06D14FF0010C0CFA00FCC2
:10027000C2F814C00AE091F803C0BCF1480F05D1E0
:100280004FF0010C0CFA00FCC2F810C0401C08280A
:10029000D1D31460B1F800C0BCF1FF0F34DD546855
:1002A00000202EE000F1080C4FF0010808FA0CF3D2
:1002B000B1F800C00CEA03069E4221D183004FF042
:1002C0000F0C0CFA03F7BC4305FA03FC4CEA0404D8
:1002D00091F803C0BCF1280F05D100F1080C08FA11
:1002E0000CF8C2F8148091F803C0BCF1480F07D194
:1002F00000F1080C4FF0010808FA0CF8C2F8108061
:10030000401C0828CED35460BDE8F08100BFFEE752
:1003100000BFFEE77047704729B1064A9269024361
:10032000044B9A6104E0034A92698243014B9A614B
:10033000704700000010024030B500210022002468
:1003400000232D4D6D6805F00C0121B1042905D065
:10035000082923D105E0294D056022E0274D0560DD
:100360001FE0254D6D6805F47012234D6D6805F48E
:100370008034022505EB92421CB9214D554305609E
:100380000BE01D4D6D6805F400351DB11C4D554346
:10039000056002E0194D5543056002E0174D056008
:1003A00000BF00BF144D6D6805F0F0010909154D3F
:1003B0006B5C0568DD4045600F4D6D6805F4E061DC
:1003C000090A104D6B5C4568DD4085600A4D6D681B
:1003D00005F46051C90A0B4D6B5C4568DD40C56092
:1003E000054D6D6805F44041890B074D6B5CC56890
:1003F000B5FBF3F5056130BD0010024000127A0034
:1004000000093D000000002010000020704710B5DA
:1004100000F002F810BD00000CB500200190009023
:100420003348006840F480303149086000BF3048EC
:10043000006800F4003000900198401C0190009882
:1004400018B90198B0F5A06FF1D12948006800F4FF
:10045000003010B10120009001E0002000900098D1
:10046000012843D12348006840F01000214908606A
:100470000846006820F0030008600846006840F065
:10048000020008601A4840681949486008464068F8
:1004900048600846406840F480604860084640680C
:1004A00020F47C1048600846406840F4E81048603A
:1004B0000846006840F08070086000BF0C48006883
:1004C00000F000700028F9D00948406820F00300CF
:1004D000074948600846406840F00200486000BF95
:1004E0000348406800F00C000828F9D10CBD00005A
:1004F00000100240002002407047000010B5134871
:10050000006840F001001149086008464068104941
:1005100008400E494860084600680E4908400B49EB
:1005200008600846006820F480200860084640689B
:1005300020F4FE0048604FF41F008860FFF767FF5B
:100540004FF000600449086010BD00000010024038
:100550000000FFF8FFFFF6FE08ED00E021B1828900
:1005600042F40052828104E082894DF6FF731A4002
:10057000828170472DE9F04786B005460E4600247B
:10058000A24600BFA1460027B08900B100BF2F4698
:100590002C8A4CF6FF700440F08804432C82AC890E
:1005A0004EF6F3100440B08831890843718908433E
:1005B0000443AC81AC8A4FF6FF400440B089044349
:1005C000AC8201A8FFF7B8FE1F48874202D1DDF8D0
:1005D00010A001E0DDF80CA0A88900F4004040B1B3
:1005E0000AEBCA0000EB0A1031684900B0FBF1F8D1
:1005F00007E00AEBCA0000EB0A1031688900B0FB83
:10060000F1F86420B8FBF0F004012009642101FB3B
:100610001089A88900F4004040B1322000EBC900E5
:10062000B0FBF1F000F00700044308E0322000EBDB
:1006300009106421B0FBF1F000F00F0004432C819D
:1006400006B0BDE8F08700000038014000BFFEE7BB
:1006500002E008C8121F08C1002AFAD1704770478B
:10066000002001E001C1121F002AFBD1704710B524
:100670004FF4165000F01CF810BD02468A4202D218
:100680004FF0FF3070478A4201D90120FAE700207D
:10069000F8E710B5024614680B689C4202DA4FF086
:1006A000FF3010BD9C4201DD0120FAE70020F8E791
:1006B00010B586B0044601210420FFF72DFE01216C
:1006C0008803FFF729FE4FF40070ADF814001820DE
:1006D0008DF8170003208DF8160005A91248FFF7C2
:1006E0008AFD4FF48060ADF8140004208DF81700E7
:1006F00005A90D48FFF77FFD01940020ADF8080023
:10070000ADF80A00ADF80C00ADF810000C20ADF803
:100710000E0001A90548FFF72DFF01210348FFF74F
:100720001DFF06B010BD0000000801400038014068
:100730002DE9F04104460F460025A846A06810B9EF
:100740000020BDE8F0812568D4F8048000BF296846
:100750003846E26890470646002E01DA2D6905E02A
:10076000002E01DD6D6901E02846EAE7454501D02C
:10077000002EECD10020E4E7FFF779FF00F0D0FA7B
:1007800000BFFEE710B5184B23F00700174B1860A9
:100790000023164C636042F2F843C218083A144B27
:1007A0001A601B7803F007030BB9012300E0002354
:1007B0000BB900BFFEE700230D4C246863600C4CAE
:1007C00024682360014642F2F0434B60084B1B68EB
:1007D0000B60084B1B68083B064C23604FF000433E
:1007E000054C236010BD00003000002014000020E4
:1007F0001C000020200000202400002010B501462D
:10080000164800E0006803688B42FBD30246436849
:1008100013448B4204D143684C682344436001462F
:100820000A464B6813440468A34211D10C4C036878
:100830002468A34208D04B680468646823444B6072
:1008400003681B680B6005E0054B1B680B6001E04B
:1008500003680B60884200D0016010BD14000020C6
:100860001C00002070B504460D46002604FB05F070
:1008700000F008F8064604FB05F13046FFF79BFC44
:10088000304670BD2DE9F04105464FF0000825487F
:10089000006808B9FFF776FF234800682840002861
:1008A0003CD145B1083505F0070020B105F007003F
:1008B000C0F1080005448DB31C48006885422DD85E
:1008C0001B4E3046046801E0264624686068A84252
:1008D00002D220680028F7D11248006884421DD057
:1008E000306800F10808206830606068401B1028FC
:1008F00007D967196068401B786065603846FFF764
:100900007DFF0A4960680968081A084908600649B5
:100910006068096808436060002020604046BDE8C8
:10092000F08100001C000020240000202000002096
:100930001400002070B506460C4670E0E0680069BF
:10094000A04236D1E0684569287A50B90120287262
:100950000020E16808723046E16800F012F9E068B2
:1009600045692869007A012807D16869007A012859
:1009700003D100202872E46851E06869007A0128F8
:1009800009D129690872002028722946304600F0F2
:1009900017F9E0684569E068007A28720120E1688B
:1009A0000872696908723046E16800F0EAF8346854
:1009B00035E0E0680569287A50B9012028720020E6
:1009C000E16808723046E16800F0FAF8E06805690D
:1009D0006869007A012807D12869007A012803D1C3
:1009E00000202872E4681AE02869007A012809D1F9
:1009F00069690872002028722946304600F0C1F863
:100A0000E0680569E068007A28720120E1680872F0
:100A1000296908723046E16800F0D2F8346830681D
:100A2000A04202D0207A012888D00120207270BD17
:100A300070B506460C464FE0E068C1680969884217
:100A400025D1E068C0684569287A50B90120E1687D
:100A5000087228720020E168C9680872E068C468FA
:100A60003AE0E0684069A04204D1E468214630469B
:100A700000F087F80120E16808720020E168C96889
:100A80000872E068C168304600F09AF824E0E06837
:100A9000C0680569287A50B90120E1680872287297
:100AA0000020E168C9680872E068C46814E0E06882
:100AB0000069A04204D1E4682146304600F080F885
:100AC0000120E16808720020E168C9680872E068E6
:100AD000C168304600F055F8E068007A0028ABD0D5
:100AE00001203168087270BD2DE9F04106460D46BF
:100AF0002C4694F8088028697168884206D16F698D
:100B0000294630466A6900F07AF82BE06869716816
:100B1000884206D12F69294630462A6900F06FF8CD
:100B200020E03046696900F091F8044694F80880A6
:100B30006769E068A84201D1FC6008E021463046C0
:100B4000626900F05CF8686960616069C4602246AF
:100B50002946304600F053F8286920612069C460B6
:100B6000287A2072B8F1010F03D139463046FFF7D9
:100B7000E1FE2846B1698847B068401EB060BDE814
:100B8000F08110B50246486903694B6103695468F6
:100B9000A34201D00369D960CB68C360CB685468B5
:100BA000A34201D1106008E0CB681B698B4202D1DF
:100BB000CB68186101E0CB6858610161C86010BD65
:100BC00010B50246086943690B6143695468A34242
:100BD00001D04369D960CB68C360CB685468A34235
:100BE00001D1106008E0CB685B698B4202D1CB6811
:100BF000586101E0CB6818614161C86010BD10B553
:100C0000CB684468A34201D1026008E0CB681B694D
:100C10008B4202D1CB681A6101E0CB685A61CB6884
:100C2000D36010BD70B505460C466868A04200D17F
:100C300070BD28462169FFF7F5FF28466169FFF777
:100C4000F1FF2046A969884700BFF1E702465368D3
:100C500000E0096908699842FBD10846704770B501
:100C600004460D462946D4E9000200F087F870BD1D
:100C700010B50446204600F0CDF810BD70B504460E
:100C80000D462946206800F0D7F870BD10B504461F
:100C9000206800F0DEF820462169884710BD7FB546
:100CA00004460D466846FFF7E3FF00942946684670
:100CB00000F002F804B070BDF8B505460F460020FC
:100CC000009014210120AA68904704460CB9012025
:100CD000F8BD6946284600F0C9F8064626B1204608
:100CE000E96888473046F3E700982060012060609B
:100CF0006868A060A868E060E86820613C60002047
:100D0000E6E770B504460D46164632462946206889
:100D100000F0D6F8062801D1072070BD0020FCE7BE
:100D200010B58EB0002400200D902C22114902A88D
:100D3000FFF71AFA0020019001A90F48FFF7AFFF53
:100D400000BF06E002A850F824100198FFF787FFC3
:100D5000641C0B2CF6D3DDE90101FFF78FFF20B1F6
:100D60000DAADDE90101FFF7CCFF0198FFF78EFF27
:100D70000EB010BDFC100008930600082DE9F047E6
:100D800004468946924600256768266814E0316863
:100D90004846E268904780463746B8F1000F01DACE
:100DA000366909E0B8F1000F01DD766904E0C6F8A4
:100DB00004A00020BDE8F0876068B042E7D11820A9
:100DC0002169884705460DB90120F3E7C5F804A05D
:100DD000C5F80090EF606068286160686861A0688D
:100DE000401CA0606068B84203D1256001202872D1
:100DF0000EE00020287239684846E26890470028D3
:100E000001DA3D6100E07D6129462046FFF710FED2
:100E10000020CFE704494160044981600449C16072
:100E20000449016070470000850800086508000853
:100E3000F10E00087B06000870B504460D462946F1
:100E40002046FFF775FC06460EB1012070BD00205C
:100E5000FCE710B5044620462168FFF7E3FEA169D0
:100E6000606888472046A169884710BD2DE9F04198
:100E700005460F4600261C210120AA68904704461B
:100E800014B90120BDE8F08118210120AA6890471B
:100E9000064626B92046E96888470120F2E7012086
:100EA00030720020A0602868E06068682061A8684F
:100EB0006061E868A061266066603C600020E1E750
:100EC0002DE9F04106460F46144639463046FFF7F5
:100ED0002FFC054615B90620BDE8F0810CB1686805
:100EE000206029463046FFF7FFFD0020F4E70000B0
:100EF00070B506463546B6B1083D2C460A496068CD
:100F00000968084078B1206868B9074960680968CD
:100F100088436060054960680968084403490860BF
:100F20002046FFF76BFC70BD24000020200000204D
:100F300001000000020000000300000004000000A7
:100F40000500000006000000070000000800000087
:100F5000090000000A00000001000000020000007B
:100F6000030000000400000005000000060000006F
:100F70000700000008000000090000000A0000004F
:100F80000100000002000000030000000400000057
:100F90000500000006000000070000000800000037
:100FA000090000000A00000001000000020000002B
:100FB000030000000400000005000000060000001F
:100FC0000700000008000000090000000A000000FF
:100FD0000100000002000000030000000400000007
:100FE00005000000060000000700000008000000E7
:100FF000090000000A0000000100000002000000DB
:1010000003000000040000000500000006000000CE
:101010000700000008000000090000000A000000AE
:101020005011000838110008581100082811000854
:101030005C1100083C1100086C1100084811000800
:10104000641100083011000844110008000000007D
:101050000100000002000000030000000400000086
:101060000500000006000000070000000800000066
:10107000090000000A0000005011000838110008A3
:1010800058110008281100085C1100083C110008E4
:101090006C110008481100086411000830110008A4
:1010A00044110008501100083811000858110008B8
:1010B000281100085C1100083C1100086C110008A0
:1010C000481100086411000830110008441100089C
:1010D000000000000100000002000000030000000A
:1010E00004000000050000000600000007000000EA
:1010F00008000000090000000A000000501100086C
:101100003811000858110008281100085C11000867
:101110003C1100086C110008481100086411000817
:101120003011000844110008746872656500000001
:101130006E696E65000000006F6E65006669766519
:101140000000000074656E00736576656E00000037
:101150007A65726F0000000074776F00666F7572B9
:10116000000000006569676874000000736978001A
:101170009011000800000020280000005006000820
:10118000B8110008280000200029000060060008AF
:10119000000000000102030401020304060708091D
:1011A000020406080000000000000000000000002B
:0811B000F8240000000000001B
:0400000508000145A9
:00000001FF
